:020000040000fa
:080000000001040000000000f3
:020000040000fa
:100200000fd72000607f220000018800000000005e
:10021000050007000c00070068060200000000004f
:100220000040da000000fe004440a90080032000e6
:100230000000e0000300320000002000a001880060
:100240004440a80000000600200e2100010020000c
:100250001600370062004000e080480091018800ed
:100260009001ba0062004000e080480091018800df
:100270009002ba0062004000e08048000002eb00fb
:100280006028e10005003a008301e900070033001f
:10029000038009000059eb00040037006128e100e9
:1002a000010032000082eb00050007009101880088
:1002b0001001ba000200e000e6ff3a00000005006d
:1002c000910188008002780062004000e0804800d0
:1002d0003559ba008301e900080032002559ba00f7
:1002e0008301e900050032000400e000f4ff320061
:1002f00015d9ba008301e900f1ff3a0000000600b9
:10030000881f7800891f7800000478008404780032
:10031000110009000940d900cf0478004f0478008b
:100320000000060000002c00800078002400b600c9
:10033000020032000100e10002003a007f00c80024
:100340000a003700000028002400b6000300320035
:100350001201c3000000ca0004003700f0ff2700ac
:10036000f1ff2f000000ca00110188000000060004
:100370000201e90002800900b018780000000600c0
:1003800010018800210188004600c800100180008b
:1003900021018000660802000000000000027800d1
:1003a000858624001301c0000400cc00400a200010
:1003b0000020e10001003c00440a2000800102000e
:1003c00000000000c8c5200080027800630008001b
:1003d00004000000180278001301c0000200cc00e5
:1003e000021c780000000000000006002200fa0055
:1003f000c0c52000f8030700e1ff0700c0c52000ca
:10040000f5030700000678008106780060002000f0
:10041000240de3001e003a00c0c520004440a8009f
:1004200008002000a8018800884b29008e00780071
:100430002a0107000e0178008d0078000c0078007a
:1004400003022000830147008c1f78008d1f780075
:10045000831f78008e1f7800550107004f07780032
:10046000cf0178008000780003007800f2000700d8
:10047000cf0678004f06780010002000240de3001e
:10048000ea003a00cc628800dd628800e7003700ad
:1004900010002000240de30033003a00c0c5200006
:1004a0004440a80008002000a8018800884b2900cb
:1004b0008e007800090107000e0178008d00780099
:1004c0000c00780003022000830147008c1f780095
:1004d0008d1f7800831f78008e1f7800340107007d
:1004e0004f077800cf017800800078000300780083
:1004f000db000700cf0678004f06780020002000c0
:10050000240de30012003a001201c300c46280000f
:10051000d562800014018800250188004100c800d0
:100520001281c3004c0188005d0188004180c80031
:100530004c0180005d0180000000cb0014018000b0
:1005400025018000c4628800d5628800b7003700aa
:1005500010002000240de300b4003a00cc628800b3
:10056000dd628800b100370020002000240de30088
:100570000300320030002000240de30049003a005f
:10058000c4628000d56280001401880025018800c3
:100590004200c800140180002501800004025600ba
:1005a00085825e0036003400c0c520004440a800ab
:1005b00008002000a8018800884b29008e007800e0
:1005c000c60007000e0178008d0078000c0078004e
:1005d00003022000830147008c1f78008d1f7800e4
:1005e000831f78008e1f7800f10007004f07780006
:1005f000cf0178008000780003007800ab0007008e
:10060000cf0678004f06780030002000240de3006c
:1006100015003a00c4628000d562800004025600d2
:1006200085825e0081003400c4628000d562800053
:1006300014018800250188004100c8004c01880091
:100640005d0188004180c8004c0180005d01800090
:100650000000cb001401800025018000c4628800e6
:10066000d56288007100370060002000240de3008f
:100670006e003a0030002000206988006b003700cf
:1006800010002000260de30068003a002e2dec003b
:100690004000200020698800ac628800bd628800ac
:1006a0006200370040002000240de3003f003a00c4
:1006b000c4628000d5628000140188002501880092
:1006c0004200c80014018000250180000402560089
:1006d00085825e001e003400c0c520004440a80092
:1006e00008002000a8018800884b29008e007800af
:1006f0007a0007000e0178008d0078000c00780069
:1007000003022000830147008c1f78008d1f7800b2
:10071000831f78008e1f7800a50007004f07780020
:10072000cf017800800078000300780042000700c5
:10073000cf0678004f06780010002000240de3005b
:100740003a003a00cc628800dd628800370037004a
:10075000cc628800dd62880010002000260de300d6
:100760000f003a002e2dec00200020002e0de3009b
:1007700008003500406980000100200050698800b1
:10078000216988002e2def000000200030698800cc
:100790002600370040002000206988002300370031
:1007a0006000200020698800200037000000200041
:1007b000240de3001d003a00c0c520004440a800fd
:1007c00008002000a8018800884b29008e007800ce
:1007d000420007000e0178008d0078000c007800c0
:1007e00003022000830147008c1f78008d1f7800d2
:1007f000831f78008e1f78006d0007004f07780078
:10080000cf01780080007800030078000a0007001c
:10081000cf0678004f06780010002000240de3007a
:1008200002003a00cc628800dd6288002069800006
:100830000080fa00000006006508e10005003500b0
:1008400010007800406988001000200020698800ae
:1008500000000600600020002069880000000600fb
:100860006508e1000e00350010007800280de30057
:1008700005003a00200020001600200020698800b2
:100880003669880000000600884929001000200011
:10089000180178002069880042698800000006007d
:1008a0006000200020698800000006006508e10063
:1008b0000600350010007800280de30005003a001e
:1008c0003000200020698800000006006000200041
:1008d0002069880020698000000006004400f800bc
:1008e000000578000f0008002e0000001201c30070
:1008f0009a027800180278001301c000801f780067
:10090000811f78009201020000000000cf007800f3
:100910004f007800e20145001281c3001380ca0035
:100920000000cb000700cc00640045006100080017
:1009300011000000300278001201c3001281c300d0
:10094000540188002501880000b0cb00180278000f
:100950001301c200801f7800811f780092010200fd
:1009600000000000cf0078004f0078000000cb00ae
:100970000600cc0087027800860378001301c500ca
:100980007f00c8000400cc00380378001301c100c8
:100990001181f10000b0cb001101f3000000cb0089
:1009a0000900cc00891878004400f9000000060016
:1009b0000600fa000005eb000a0f78001a079800fd
:1009c0002a07980002057800920378008005eb0062
:1009d00003000800050000003a0378000638e10033
:1009e00002003c00860378008b0478008b05e80049
:1009f000c14add000282420015002000050a78008d
:100a00001a0378004b0020000300080005000000d6
:100a10003a0278000430e10002003c000403780050
:100a20000b0678008b05e800c162dd0002824200ff
:100a300015002000050a7800041920000438e100a0
:100a40008a0034000430e10088003400068243004c
:100a5000140188002420ef007500c80014018000f4
:100a6000250180008e06780004025000858258001f
:100a700003003c0014002000840e780002003700c0
:100a800014002000940698000638e1000f0034009e
:100a90000600780007027800821f780080010200bb
:100aa000000000004f017800442121000400e10013
:100ab00005003c0064002000246988001400200028
:100ac000a4069800010037001e0fe8000638e10078
:100ad0000f003d000700780006027800821f7800b2
:100ae00080010200000000004f017800a4d622001f
:100af0000400e10005003d00640020002469880036
:100b000014002000a4069800010037001e0fe80022
:100b10000205780005002000030008000d00000019
:100b20003a00780007027800821f780080010200f6
:100b3000000000004f017800813e20000100e1002c
:100b4000030034006400200024698800010037009d
:100b50008502e800000000006328e1000100350084
:100b60001e0fe8008002eb00030008000d000000eb
:100b70003a00780006027800821f780080010200a7
:100b8000000000004f017800813e20000100e100dc
:100b9000030034006400200024698800010037004d
:100ba0008502e800000000006328e1000100350034
:100bb0001e0fe8008002eb00840020000482440045
:100bc0004122dd0004024100821f780014007800f9
:100bd000070278000400e10002003400f0ff270063
:100be0000200370080010200000000004f01780081
:100bf000840c20000400e1000300350064002000a4
:100c000024698800010037001e0fe80084002000de
:100c10000c0242004122dd0002024200821f7800e5
:100c20001400780006027800800102000000000035
:100c30004f017800840c20000400e100030035001f
:100c40006400200024698800010037001e0fe800be
:100c50001e0090006100e100030032002e009000b1
:100c60006200e10002003a00000feb00000feb0011
:100c70006a4ab80004024600080020004440a80068
:100c80000a002000aa0188008a4729000f000800f6
:100c9000040000003a0078000020e10001003a0062
:100ca000880278000804e8004440a80008002000fa
:100cb000a801880088492900c12add001e007800ab
:100cc000e8827a00850978000080fa0000000600ba
:100cd0000a00fa0000052000804288006100070039
:100ce0000100200000c22000db01070010002000ee
:100cf00010079800c40107000000200090628800df
:100d0000906280000000e000fdff3200000620003d
:100d10007603070068000700804280001e0ce30095
:100d2000fdff350000002000f0608800a6000700ed
:100d3000d06080000000d00061a32000008040004f
:100d400090428800c06080000000d00061852000d3
:100d500000804000a0428800d16080008042800076
:100d600000804000d0608800f00e20001a0ce300e4
:100d70000200340000002000d060880042c3200040
:100d8000914280001e009000fd000700000f7800d7
:100d9000200020009e0f100013003a00e000200009
:100da000340ce30003003a00a0c2b300004f9800e7
:100db00009003700f0002000340ce30003003a0083
:100dc00030c2b300004f98000300370034ccbf009e
:100dd0000043b000004f98000e48900056000700f6
:100de0000e4890006a0007000000200020079800cd
:100df0002e00900081428000810f500001003500dc
:100e0000c5ff370083c1200013017800020078007d
:100e10000000d00061852000010240002e009000fb
:100e20008000d000a042800080804000e0ff2f00c2
:100e3000110a60000201e80082097800f00e20002b
:100e4000180ce3000200340000002000c06088009d
:100e50002e0090000000e80020079800e4ff370013
:100e6000000000000000fa00630207001302070000
:100e700011000700810207000f0007008d03070023
:100e80000504070010c0b30045040700c10020009e
:100e9000c04529007404070000ccb30040040700db
:100ea000d1002000904629006f040700340307009a
:100eb0000080fa00000006000200fa000000200096
:100ec000000f7800f00e20009e0f1000010034008b
:100ed0000e0037001e0078000000d0006285200060
:100ee0008200400000002000800878001e0078008a
:100ef0000000d00062a3200082004000000020001b
:100f0000800878001e0fe800eeff37008042800066
:100f1000c0608800e060880000002000b0608800a9
:100f200000002000d060880080428000f0608800cf
:100f30000080fa00000006000200fa00004f78006e
:100f4000a2c4200092407800014078000080fb009d
:100f500003c42000030040001e4878008140e800e0
:100f6000014978004accbf00ea4f500002003a0025
:100f700000c0b3004aecb7004eccbf000004e00054
:100f800001003200a50307000080fa0000000600ff
:100f90001800fa00004f78000e80e8001e48780024
:100fa00010c0b3006057980010c0b300fc030700e6
:100fb0006e5090008000fb000e80e8002a040700bd
:100fc0000080fa00000006000400fa00c1c42000fe
:100fd000914078004dccbf0000cf50001e04e000cf
:100fe000380032001e04e00002003d001e40780080
:100ff0006a4f400000c0b300104798001e409000a8
:101000009e4f5000010035002b003700d2c4200055
:1010100092407800014078000080fb0063c320000c
:101020000300400010407800204798008140e8000d
:1010300001497800ae409000a0c2b30080cf5000bc
:1010400003003a00e0c0b300204798000b003700cf
:10105000ae40900030c2b30080cf500003003a0091
:10106000f0c0b30020479800040037002e409000e5
:1010700001cdb30001404000204798001e40900081
:101080000000fb0001c2200001004000ae419000c2
:10109000034878004dccbf00ea4f500002003a00f0
:1010a00000c0b3004decb7001e4090000040e800c7
:1010b00010479800d1ff37009e00fb0000c22000bf
:1010c000e50007000080fa00000006001201c300de
:1010d0001281c300040020001500200004037800e2
:1010e000840378000404780084047800040250002b
:1010f00085825800040035000001eb008001eb0000
:1011000003e0a000030037000001eb008001eb00ca
:1011100002e0a00060015100e08159001600320099
:1011200061034300e0834b000805410089854900c5
:101130000a0250008b825800040035000400780039
:10114000850078000204450083844d001801880062
:10115000290188004100c800180180002901800091
:1011600042018800530188004280c800530180007a
:1011700042018000e7ff3700080078000000060009
:10118000821f78002c0de2000a003a00010078006e
:10119000c1c5200002052000b801020000000000c7
:1011a00050002000801f780015002000656988002d
:1011b00084003700696980006148e10020003a003e
:1011c0000002780001007800811f7800060a2000e4
:1011d000c1c520008680400042012000b801020005
:1011e00000000000100020000020e10007003a008d
:1011f000cac5200063000800030000001a0378003d
:1012000042b3de00061d780000000000f601020077
:1012100000000000cf00780086022000801f7800c8
:1012200006804000c1c52000c2032000b8010200b2
:101230000000000020002000606988006100370085
:10124000696980006248e10020003a0000027800ed
:1012500001007800811f780086072000c1c52000aa
:101260008680400082022000b801020000000000d9
:10127000100020000020e10007003a00cac520004d
:1012800063000800030000001a03780042b3de0088
:10129000061d780000000000f601020000000000ba
:1012a000cf00780006052000801f780006804000ef
:1012b000c1c5200082022000b80102000000000029
:1012c00030002000606988003e00370069698000b6
:1012d0006348e10020003a00000278000100780035
:1012e000811f780006052000c1c5200086804000cf
:1012f000c2032000b801020000000000100020001e
:101300000020e10007003a00cac520006300080081
:10131000030000001a03780042b3de00061d7800c7
:1013200000000000f601020000000000cf0078007d
:1013300086072000801f780006804000c1c520007d
:1013400042012000b801020000000000400020001f
:10135000606988001b003700696980006448e1000b
:10136000fdff3a000002780001007800811f78003c
:1013700086022000c1c520008680400002052000b2
:10138000b801020000000000100020000020e10071
:1013900007003a00cac520006300080003000000ef
:1013a0001a03780042b3de00061d7800000000003a
:1013b000f601020000000000cf007800801f7800d6
:1013c0002c2def004f0078004f017800416980001c
:1013d00001097800000006004400f80041082000e0
:1013e0002102880000047800000000005200c300c1
:1013f000630009005000f00021018000100180000e
:101400004400f9000000060044a0a900c8c520005f
:101410008000eb0063000900011c78001000200030
:1014200030698800600020002069880040012000a9
:1014300040698800e00120005069880071698800d7
:10144000a1628800b1628800c1628800d162880010
:10145000616988000000060044a0a900342def0057
:10146000402def0022002000b26988000219200000
:10147000c2698800d269880002052000e2698800fc
:10148000020020000208e100070032008100e900ac
:1014900022d420000180090030597800f0ff2f008d
:1014a000004978000000060042002000b269880070
:1014b000000006004400f8003400f800881f78009f
:1014c000891f78008a1f78008b1f78008c1f780096
:1014d00042002000b46980000220e10006003a00ca
:1014e000f20420008001eb0002800900031878005c
:1014f000b0698000690037003c0de2001a003c0032
:10150000d2698000e2698800342def0022002000bb
:10151000b36980000218e10005003a0012002000c3
:10152000b2698800c2698000e26988000e00370055
:1015300022002000b2698800036a800028d42000bd
:10154000f2ff2f000002eb0068c279008301e8007f
:10155000036a8800f46988000224e10002003a006e
:1015600042002000b269880022002000b369800098
:101570000218e10041003a0002052000340de200ab
:1015800025003a0044e0a8004440a80003002000e1
:10159000a3018800884f2900fa6980004155dd00c9
:1015a00068027d00d46a880003002000a30188003f
:1015b000884d2900e8027d00b56a880003002000fc
:1015c000a30188008853290068037d00f66a88001b
:1015d00003002000a301880088512900e8037d0052
:1015e000c76a88001301c0000a00cc004155dd0025
:1015f000ea6a88001301c6000b00cc00c15ddd0063
:101600000b6b880086014200031878008b014500af
:10161000031878000281e90061015100028008008e
:1016200014000000b56a8000e66a8000d46a800079
:101630001301c4000800cc004144dd000404540040
:10164000d66a8800e86a8800066b8000c76a800056
:101650001301c6000900cc00c14cdd00f76a800010
:1016600087845400f66a8800096b880009064400e4
:101670000c1878000000000004003700f10420007e
:101680000002eb000180090004187800000520002a
:101690003c2db500342dec00b06980004f06780079
:1016a000cf0578004f057800cf0478004f0478000c
:1016b0003400f9004400f900000006004022ef0069
:1016c0004222ef004422ef00dec2a800e5a2a900fa
:1016d000e582a8004c02a8004802a8004002a90028
:1016e0004022a90040a2a8004122a900e5e2a800ea
:1016f000e5c2a800f01e2000101288004362a80076
:101700004342a8004422ef004102a8004142a80041
:101710004c22a8004d02a8004d22a8004822a80093
:101720004902a8004922a8008920a900000006005b
:10173000809fbe00829fbe00849fbe00869fbe0029
:101740008a9fbe001e2cec0064852000b1608000e2
:10175000c109dd00ea6080006ba32000648179008c
:101760008100e800030f20000308e10001003a00b7
:101770008000eb00b16088008001eb004200a9000e
:101780000281d3008381d300c2128800d312880063
:1017900000002000e012880000002800f0128800fd
:1017a0004151dd0080128000911280008180d200c2
:1017b0000080d20080357900a0128000b112800034
:1017c0000a05e800010f20000150e10001003a0085
:1017d0000005eb00ea6088008920a9004f05be00e3
:1017e0004f03be004f02be004f01be004f00be00bf
:1017f0000100fc0000400600c222ef00c0a2ef0082
:10180000c0c2a900c0e2a900c122a900c142a9002a
:10181000c822ef0070fc2f0040158800c622ef00a0
:10182000c602a800c622a800c662a800c682a800f8
:10183000c6a2a800cbe2a800ce22ef00cca2ef0007
:10184000cc22a900cda2a900cdc2a900d422ef00cc
:10185000d222ef00e022ef00de22ef00de02a8003d
:10186000de42a800e622ef00e702a800e6e2a800b8
:10187000f0ff2d002017880000000600e8e2a80015
:10188000e4e2a900e522a800e8c2a900e4c2a90098
:10189000e902a800e502a900f0ff2300c0128800b9
:1018a00000002800d012880000382000f000b300ab
:1018b000e012880000002800f0128800e902a90068
:1018c000e502a9009600090000000000e902a80056
:1018d0000000000041e2a8004602ae00feff370013
:1018e000f0ff2300c012880000002800d0128800fa
:1018f000004020000007b300e01288000000200034
:10190000f01288004602ae00feff3700f0ff230011
:10191000c012880000002800d0128800005020006b
:101920000000b300e012880000002800f0128800d8
:101930004602ae00feff3700f0ff2300c012880011
:1019400000002800d0128800004820004004b300a6
:10195000e012880000002800f01288004602ae0065
:10196000feff3700f0ff2300c012880000002800af
:10197000d012880000782000010020000200200022
:1019800082807000c188de0000807000e012880054
:1019900000002000f01288004602ae00feff370073
:1019a000f0ff2300c012880000002800d012880039
:1019b000008020008000eb0081002000c188de0054
:1019c00000807000e012880000002000f012880003
:1019d0004602ae00feff3700f0ff2300c012880071
:1019e00000002800d012880000882000010020009c
:1019f000c188de0000807000e01288000000200036
:101a0000f01288004602ae00feff3700f0ff230010
:101a1000c012880000002800d0128800009020002a
:101a20008000eb0001002000c188de000080700013
:101a3000e012880000002000f01288004602ae008c
:101a4000feff37004662ae000400370080128000bf
:101a500090128000a0128000b0128000f0ff2300de
:101a6000c012880000002800d0128800003020003a
:101a70000004b300e012880000002000f01288008b
:101a80008920a9004602ae00feff37002104200095
:101a9000f0ff2f000000e900feff3a008100e9009e
:101aa000fbff3a009120a8000000000000000000a9
:101ab000000006009120a900f0ff2300c01288005a
:101ac00000002800d0128800002820000000b30089
:101ad000e012880000002000f01288004602ae00ec
:101ae000feff37009120a800000006009120a90009
:101af00080007800f0ff2300c0128800000028005a
:101b0000d0128800002820000000b300e0128800f6
:101b100000002800f01288004602ae00feff3700e9
:101b2000f0ff2300c012880000002800d0128800b7
:101b3000003020000170a0004189de00020070002a
:101b4000e0128800000028000100a600000020002c
:101b5000f01288008920a9004602ae00feff37007f
:101b600021042000f0ff2f000000e900feff3a00f2
:101b70008100e900fbff3a009120a8000000060068
:101b80008220a8008240a800c1e2ef008600a900e0
:101b900086e0a9008e00a8008ee0a80000000600e4
:101ba00007000700520ca8008600a90000400600ac
:101bb00003000700500ca80086e0a90000400600c2
:101bc000fbff20008b05e9000b00e000fdff3a0061
:101bd0000000060000000000feff37000040060085
:101be00000000000feff37008020a9000040060032
:101bf00000000000feff37008060a90000400600e2
:101c000000000000feff37008040a90000400600f1
:101c100000000000feff37008080a90000400600a1
:101c200000000000feff370000400600000000003a
:101c3000feff37000040060000000000feff3700f6
:101c40000040060000000000feff370000400600d4
:101c500000000000feff37008020a90000400600c1
:101c600000000000feff37008060a9000040060071
:101c700000000000feff37008040a9000040060081
:101c800000000000feff37008080a9000040060031
:101c900000000000feff37000040060000000000ca
:101ca000feff37000040060000000000feff370086
:101cb00000400600801f78000c22ef000e22ef008b
:101cc000f0022000a01088004f0078000fe2a8006a
:101cd0008540a9008d40a8008520a9008d20a8007e
:101ce0000de2a8000f42a8000ee2a9000ec2a90052
:101cf000c142a9000000000000000600809fbe0055
:101d0000829fbe00849fbe000000eb004bccbf0052
:101d10004a4ce3001e003200120020008001eb005c
:101d20000002eb0001c420004bccbf0080417800d2
:101d30004accbf00004278000340520002003b0042
:101d4000a5002000050040000200e10001003d0068
:101d50000001780061c0790010e2b7008341e8001b
:101d6000a00020000018e10001003a008001eb0013
:101d70000201e900f7ff3a00030078004becb700de
:101d8000e2c420000000eb000049780003003700a7
:101d9000e2c4200010002000004978008540a9001e
:101da0004f02be004f01be004f00be000100fc000c
:101db00000400600809fbe00829fbe00841f780006
:101dc0000000eb008001eb000002eb000e22af00f0
:101dd0000e22a90061c320004cccbf0080417800d6
:101de00012c2bf0080f079008341e800a00020000b
:101df0000018e10001003a008001eb0003007800c8
:101e00004cecb7008520a9004f0278004f01be00be
:101e10004f00be000100fc00004006008d40a900fc
:101e2000809fbe00829fbe00841f7800e2c4200015
:101e30008001eb001204e000120032000f02ae003d
:101e4000feff37000002eb000000eb0001c42000a1
:101e50004bccbf00804178004accbf0000427800e4
:101e600061c0790010e2b7008341e800a0002000c3
:101e70000018e10001003a008001eb000300780047
:101e80004becb7004f0278004f01be004f00be0080
:101e90008d40a800000006000000fa00990007002d
:101ea000b116800000f02f0000806000b01688009e
:101eb000c962a900c2c2a900c2e2a90091168000ad
:101ec00000f02f000080600090168800c762a90013
:101ed000c0c2a900c0e2a900b116800000f02f0026
:101ee00000806000b0168800b116800080032000da
:101ef00000807000b0168800c2e2a8000000000058
:101f00000000000000000000c2e2a900720007000b
:101f1000b116800000f02f0000806000b01688002d
:101f2000b11680008003200000807000b016880089
:101f3000c2e2a80000000000000000000000000055
:101f4000c2e2a90059000700b116800000f02f007e
:101f500000806000b0168800b11680008003200069
:101f600000807000b0168800c2e2a80000000000e7
:101f70000000000000000000c2e2a9004b000700c2
:101f800080c3b30006000700c0c0b3000400070010
:101f900060c0b300020007000080fa0000000600e5
:101fa0000200fa00004f78009116800000f02f0028
:101fb0000080600090168800b116800000f02f00ad
:101fc00000806000b01688009e00fb00b016800004
:101fd00001007000b0168800c962a900c2c2a90041
:101fe000c2e2a800000000000000000000000000a5
:101ff000c2e2a900380007000080fa0000000600d5
:102000000200fa00004f78009116800000f02f00c7
:102010000080600090168800c962a900c2c2a800b2
:10202000b116800000f02f0000806000b01688001c
:102030009e00fb00b016800001007000b016880002
:10204000c2e2a80000000000000000000000000044
:10205000c2e2a900c2c2a9001400070013000700d1
:102060000080fa00000006000400fa00000f78006b
:10207000214798002e4090000004e00001003a0043
:10208000080037001e0078001e0fe800104078009e
:10209000dbff07002e4090000040e9002047980039
:1020a000f4ff37000080fa00000006000200fa008a
:1020b00000002000000f7800101220009e0f10007a
:1020c00001003600020037001e0fe800faff37005b
:1020d0000080fa00000006000200fa000000200064
:1020e000000f7800d0be21009e0f100001003600c6
:1020f000020037001e0fe800faff37000080fa00e8
:10210000000006000200fa0000002000000f780026
:10211000305125009e0f10000100360002003700ec
:102120001e0fe800faff37000080fa0000000600ea
:102130000400fa006000b800008fbe00f0722300b7
:1021400021002000be0f1000ae8f180001003600e5
:102150000500370010002000010020001e0f400085
:102160005e974800f5ff37000080fa000000060087
:102170000400fa0000002000000f78003001200069
:102180009e0f1000010036000c00370000002000f8
:10219000100798001e009000e10f400001003a0077
:1021a000040037001e0090000000e80010079800af
:1021b000f8ff37001e0fe800f0ff37000080fa003c
:0421c0000000060015
:020000040000fa
:1021c400500800001205000002000000000000009a
:1021d40000000000000000000000000000000000fb
:1021e40000000000000000000000000000000000eb
:1021f40000000000000000000000000000000000db
:1022040000000000000000000000000000000000ca
:10289400620d00000e0000000200000000010200b2
:1028a4000304050006070800090e0f0000000000dd
:0428b4000000000020
:020000040000fa
:0200000401f009
:04000000f6ff000007
:020000040000fa
:0200000401f009
:04000400ff7f00007a
:020000040000fa
:0200000401f009
:040008004fff0000a6
:020000040000fa
:0200000401f009
:04001400ffff0000ea
:020000040000fa
:1028b8002020000020440000544d00004620000065
:1028c800446500006d6f00000020000052650000a4
:1028d80076690000736900006f6e00002031000007
:0828e8002e300000000000008a
:020000040000fa
:10000800ea0d0000f00d0000f80d0000000e0000e1
:10001800080e0000100e0000160e00001c0e000056
:100028005815000058150000581500005815000014
:100038005815000058150000581500005815000004
:1000480058150000da0e00007e0e0000581500005a
:1000580058150000581500005815000058150000e4
:10006800d00d000058150000581500005815000064
:10007800581500005815000058150000d80d00004c
:1000880058150000581500005815000058150000b4
:1000980058150000581500005815000058150000a4
:1000a8005815000058150000581500005815000094
:1000b8005815000058150000581500005815000084
:1000c80058150000980b000058150000581500003e
:1000d8005815000058150000581500005815000064
:1000e8005815000058150000581500005815000054
:0800f800581500005815000026
:020000040000fa
:10010800220e0000280e0000300e0000380e0000fd
:10011800400e0000480e00004e0e0000540e000075
:100128005815000058150000581500005815000013
:100138005815000058150000581500005815000003
:1001480058150000da0e00007e0e00005815000059
:1001580058150000581500005815000058150000e3
:10016800d00d000058150000581500005815000063
:10017800581500005815000058150000d80d00004b
:1001880058150000581500005815000058150000b3
:1001980058150000581500005815000058150000a3
:1001a8005815000058150000581500005815000093
:1001b8005815000058150000581500005815000083
:1001c80058150000980b000058150000581500003d
:1001d8005815000058150000581500005815000063
:1001e8005815000058150000581500005815000053
:0801f800581500005815000025
:020000040000fa
:1028f00023000000040000000500000006000000a6
:102900000e0000000f000000100000001800000082
:10291000190000001a00000007000000110000006c
:102920001b00000025000000220000002400000021
:102930000000000001000000020000000300000091
:102940000400000005000000060000000700000071
:1029500008000000090000000a0000000b00000051
:102960000c0000000d0000000e0000000f00000031
:102970004b6d00004b690000656400009a5e00002a
:10298000804a0000c43f0000d532000063240000ec
:10299000a53a00003e2d00007d1d0000d80b000070
:1029a000bbd600008abf0000d2a80000b19400008e
:020000040000fa
:1029b0009b5e00004b6d00004b6d00004b6d0000f6
:1029c0004c6900004c6900004c690000656400001f
:1029d00065640000656400004b6d00004c690000f8
:1029e000656400009b5e00009b5e00009b5e000033
:1029f00066f700005af900005af900005af9000081
:102a0000bdf80000bdf80000bdf8000014f800009b
:102a100014f8000014f800005af90000bdf8000096
:102a200014f8000066f7000066f7000066f7000083
:102a3000c53f0000814a0000c53f00001d33000073
:102a4000814a0000c53f00001d330000814a00009c
:102a5000c53f00001d330000632400006324000014
:102a60006324000063240000814a00001d3300003d
:102a70005cf0000055f100005cf0000077ef000012
:102a800055f100005cf0000077ef000055f1000008
:102a90005cf0000077ef0000b5ee0000b5ee00003e
:102aa000b5ee0000b5ee000055f1000077ef000034
:020000040000fa
:042ab0000000fe0024
:00000001FF
